{
  "contractName": "NFTGiveaway",
  "abi": [
    {
      "inputs": [
        {
          "internalType": "address",
          "name": "_usdao721",
          "type": "address"
        }
      ],
      "stateMutability": "nonpayable",
      "type": "constructor"
    },
    {
      "inputs": [
        {
          "internalType": "address[]",
          "name": "_addresses",
          "type": "address[]"
        },
        {
          "internalType": "string[]",
          "name": "_uris",
          "type": "string[]"
        }
      ],
      "name": "setWinners",
      "outputs": [],
      "stateMutability": "nonpayable",
      "type": "function"
    },
    {
      "inputs": [],
      "name": "claim",
      "outputs": [],
      "stateMutability": "nonpayable",
      "type": "function"
    }
  ],
  "bytecode": "0x60a060405234801561001057600080fd5b50604051610f77380380610f778339818101604052810190610032919061010f565b3373ffffffffffffffffffffffffffffffffffffffff1660808173ffffffffffffffffffffffffffffffffffffffff1681525050806000806101000a81548173ffffffffffffffffffffffffffffffffffffffff021916908373ffffffffffffffffffffffffffffffffffffffff1602179055505061013c565b600080fd5b600073ffffffffffffffffffffffffffffffffffffffff82169050919050565b60006100dc826100b1565b9050919050565b6100ec816100d1565b81146100f757600080fd5b50565b600081519050610109816100e3565b92915050565b600060208284031215610125576101246100ac565b5b6000610133848285016100fa565b91505092915050565b608051610e2061015760003960006103520152610e206000f3fe608060405234801561001057600080fd5b50600436106100365760003560e01c80634e71d92d1461003b5780637c1fb23414610045575b600080fd5b610043610061565b005b61005f600480360381019061005a9190610914565b610339565b005b610141600160003373ffffffffffffffffffffffffffffffffffffffff1673ffffffffffffffffffffffffffffffffffffffff16815260200190815260200160002080546100ae906109bb565b80601f01602080910402602001604051908101604052809291908181526020018280546100da906109bb565b80156101275780601f106100fc57610100808354040283529160200191610127565b820191906000526020600020905b81548152906001019060200180831161010a57829003601f168201915b5050505050604051806020016040528060008152506104b7565b15610181576040517f08c379a000000000000000000000000000000000000000000000000000000000815260040161017890610a4a565b60405180910390fd5b60001515600260003373ffffffffffffffffffffffffffffffffffffffff1673ffffffffffffffffffffffffffffffffffffffff16815260200190815260200160002060009054906101000a900460ff16151514610214576040517f08c379a000000000000000000000000000000000000000000000000000000000815260040161020b90610ab6565b60405180910390fd5b60008054906101000a900473ffffffffffffffffffffffffffffffffffffffff1673ffffffffffffffffffffffffffffffffffffffff1663eacabe1433600160003373ffffffffffffffffffffffffffffffffffffffff1673ffffffffffffffffffffffffffffffffffffffff1681526020019081526020016000206040518363ffffffff1660e01b81526004016102ad929190610b7a565b600060405180830381600087803b1580156102c757600080fd5b505af11580156102db573d6000803e3d6000fd5b505050506001600260003373ffffffffffffffffffffffffffffffffffffffff1673ffffffffffffffffffffffffffffffffffffffff16815260200190815260200160002060006101000a81548160ff021916908315150217905550565b3373ffffffffffffffffffffffffffffffffffffffff167f000000000000000000000000000000000000000000000000000000000000000073ffffffffffffffffffffffffffffffffffffffff16146103c7576040517f08c379a00000000000000000000000000000000000000000000000000000000081526004016103be90610c1c565b60405180910390fd5b805182511461040b576040517f08c379a000000000000000000000000000000000000000000000000000000000815260040161040290610c88565b60405180910390fd5b60005b82518110156104b25781818151811061042a57610429610ca8565b5b60200260200101516001600085848151811061044957610448610ca8565b5b602002602001015173ffffffffffffffffffffffffffffffffffffffff1673ffffffffffffffffffffffffffffffffffffffff168152602001908152602001600020908051906020019061049e929190610510565b5080806104aa90610d10565b91505061040e565b505050565b6000816040516020016104ca9190610dd3565b60405160208183030381529060405280519060200120836040516020016104f19190610dd3565b6040516020818303038152906040528051906020012014905092915050565b82805461051c906109bb565b90600052602060002090601f01602090048101928261053e5760008555610585565b82601f1061055757805160ff1916838001178555610585565b82800160010185558215610585579182015b82811115610584578251825591602001919060010190610569565b5b5090506105929190610596565b5090565b5b808211156105af576000816000905550600101610597565b5090565b6000604051905090565b600080fd5b600080fd5b600080fd5b6000601f19601f8301169050919050565b7f4e487b7100000000000000000000000000000000000000000000000000000000600052604160045260246000fd5b610615826105cc565b810181811067ffffffffffffffff82111715610634576106336105dd565b5b80604052505050565b60006106476105b3565b9050610653828261060c565b919050565b600067ffffffffffffffff821115610673576106726105dd565b5b602082029050602081019050919050565b600080fd5b600073ffffffffffffffffffffffffffffffffffffffff82169050919050565b60006106b482610689565b9050919050565b6106c4816106a9565b81146106cf57600080fd5b50565b6000813590506106e1816106bb565b92915050565b60006106fa6106f584610658565b61063d565b9050808382526020820190506020840283018581111561071d5761071c610684565b5b835b81811015610746578061073288826106d2565b84526020840193505060208101905061071f565b5050509392505050565b600082601f830112610765576107646105c7565b5b81356107758482602086016106e7565b91505092915050565b600067ffffffffffffffff821115610799576107986105dd565b5b602082029050602081019050919050565b600080fd5b600067ffffffffffffffff8211156107ca576107c96105dd565b5b6107d3826105cc565b9050602081019050919050565b82818337600083830152505050565b60006108026107fd846107af565b61063d565b90508281526020810184848401111561081e5761081d6107aa565b5b6108298482856107e0565b509392505050565b600082601f830112610846576108456105c7565b5b81356108568482602086016107ef565b91505092915050565b600061087261086d8461077e565b61063d565b9050808382526020820190506020840283018581111561089557610894610684565b5b835b818110156108dc57803567ffffffffffffffff8111156108ba576108b96105c7565b5b8086016108c78982610831565b85526020850194505050602081019050610897565b5050509392505050565b600082601f8301126108fb576108fa6105c7565b5b813561090b84826020860161085f565b91505092915050565b6000806040838503121561092b5761092a6105bd565b5b600083013567ffffffffffffffff811115610949576109486105c2565b5b61095585828601610750565b925050602083013567ffffffffffffffff811115610976576109756105c2565b5b610982858286016108e6565b9150509250929050565b7f4e487b7100000000000000000000000000000000000000000000000000000000600052602260045260246000fd5b600060028204905060018216806109d357607f821691505b602082108114156109e7576109e661098c565b5b50919050565b600082825260208201905092915050565b7f696e76616c69642063616c6c6572212121000000000000000000000000000000600082015250565b6000610a346011836109ed565b9150610a3f826109fe565b602082019050919050565b60006020820190508181036000830152610a6381610a27565b9050919050565b7f616c726561647920636c61696d65642121210000000000000000000000000000600082015250565b6000610aa06012836109ed565b9150610aab82610a6a565b602082019050919050565b60006020820190508181036000830152610acf81610a93565b9050919050565b610adf816106a9565b82525050565b60008190508160005260206000209050919050565b60008154610b07816109bb565b610b1181866109ed565b94506001821660008114610b2c5760018114610b3e57610b71565b60ff1983168652602086019350610b71565b610b4785610ae5565b60005b83811015610b6957815481890152600182019150602081019050610b4a565b808801955050505b50505092915050565b6000604082019050610b8f6000830185610ad6565b8181036020830152610ba18184610afa565b90509392505050565b7f6f6e6c79206f776e6572206861732061636365737320746f207468697320667560008201527f6e6374696f6e2121210000000000000000000000000000000000000000000000602082015250565b6000610c066029836109ed565b9150610c1182610baa565b604082019050919050565b60006020820190508181036000830152610c3581610bf9565b9050919050565b7f696e76616c696420617267756d656e7473212121000000000000000000000000600082015250565b6000610c726014836109ed565b9150610c7d82610c3c565b602082019050919050565b60006020820190508181036000830152610ca181610c65565b9050919050565b7f4e487b7100000000000000000000000000000000000000000000000000000000600052603260045260246000fd5b7f4e487b7100000000000000000000000000000000000000000000000000000000600052601160045260246000fd5b6000819050919050565b6000610d1b82610d06565b91507fffffffffffffffffffffffffffffffffffffffffffffffffffffffffffffffff821415610d4e57610d4d610cd7565b5b600182019050919050565b600081519050919050565b600081905092915050565b60005b83811015610d8d578082015181840152602081019050610d72565b83811115610d9c576000848401525b50505050565b6000610dad82610d59565b610db78185610d64565b9350610dc7818560208601610d6f565b80840191505092915050565b6000610ddf8284610da2565b91508190509291505056fea26469706673582212206227d271ee10e3dbecc440cdef2c397905af0641398b29e16a5ce6ef9cda395664736f6c634300080b0033",
  "immutableReferences": {
    "48": [
      {
        "length": 32,
        "start": 850
      }
    ]
  },
  "source": "// SPDX-License-Identifier: GPL-3.0\npragma solidity ^0.8;\n\nimport \"./USDAO721.sol\";\n\ninterface IUSDAO {\n    function mintNFT(address, string memory) external;\n}\n\ncontract NFTGiveaway {\n    IUSDAO USDAO721;\n    address immutable owner;\n    mapping(address => string) winnersUri;\n    mapping(address => bool) claimed;\n\n    constructor(address _usdao721) {\n        owner = msg.sender;\n        USDAO721 = IUSDAO(_usdao721);\n    }\n\n    function compareStrings(string memory a, string memory b)\n        internal\n        pure\n        returns (bool)\n    {\n        return (keccak256(abi.encodePacked((a))) ==\n            keccak256(abi.encodePacked((b))));\n    }\n\n    function setWinners(address[] memory _addresses, string[] memory _uris)\n        external\n    {\n        require(\n            owner == msg.sender,\n            \"only owner has access to this function!!!\"\n        );\n        require(_addresses.length == _uris.length, \"invalid arguments!!!\");\n        for (uint256 i = 0; i < _addresses.length; i++) {\n            winnersUri[_addresses[i]] = _uris[i];\n        }\n    }\n\n    function claim() external {\n        require(\n            !compareStrings(winnersUri[msg.sender], \"\"),\n            \"invalid caller!!!\"\n        );\n        require(claimed[msg.sender] == false, \"already claimed!!!\");\n        //lazy minting\n        USDAO721.mintNFT(msg.sender, winnersUri[msg.sender]);\n        claimed[msg.sender] = true;\n    }\n}\n",
  "sourcePath": "/Users/lokeshkumar/gfuturetech/USDAO721/contracts/NFTGiveaway.sol",
  "compiler": {
    "name": "solc",
    "version": "0.8.11+commit.d7f03943.Emscripten.clang"
  },
  "schemaVersion": "3.3.4",
  "updatedAt": "2022-01-21T13:24:41.426Z",
  "networkType": "ethereum",
  "devdoc": {
    "kind": "dev",
    "methods": {},
    "version": 1
  },
  "userdoc": {
    "kind": "user",
    "methods": {},
    "version": 1
  }
}