{
  "contractName": "NFTGiveaway",
  "abi": [
    {
      "inputs": [
        {
          "internalType": "address",
          "name": "_usdao1155",
          "type": "address"
        }
      ],
      "stateMutability": "nonpayable",
      "type": "constructor"
    },
    {
      "inputs": [
        {
          "internalType": "address",
          "name": "",
          "type": "address"
        }
      ],
      "name": "claimed",
      "outputs": [
        {
          "internalType": "bool",
          "name": "",
          "type": "bool"
        }
      ],
      "stateMutability": "view",
      "type": "function",
      "constant": true
    },
    {
      "inputs": [],
      "name": "owner",
      "outputs": [
        {
          "internalType": "address",
          "name": "",
          "type": "address"
        }
      ],
      "stateMutability": "view",
      "type": "function",
      "constant": true
    },
    {
      "inputs": [
        {
          "internalType": "address",
          "name": "",
          "type": "address"
        }
      ],
      "name": "winnersUri",
      "outputs": [
        {
          "internalType": "string",
          "name": "",
          "type": "string"
        }
      ],
      "stateMutability": "view",
      "type": "function",
      "constant": true
    },
    {
      "inputs": [
        {
          "internalType": "address[]",
          "name": "_addresses",
          "type": "address[]"
        },
        {
          "internalType": "string[]",
          "name": "_uris",
          "type": "string[]"
        }
      ],
      "name": "setWinners",
      "outputs": [],
      "stateMutability": "nonpayable",
      "type": "function"
    },
    {
      "inputs": [],
      "name": "claim",
      "outputs": [],
      "stateMutability": "nonpayable",
      "type": "function"
    }
  ],
  "bytecode": "0x60a06040523480156200001157600080fd5b50604051620011ed380380620011ed83398181016040528101906200003791906200011c565b3373ffffffffffffffffffffffffffffffffffffffff1660808173ffffffffffffffffffffffffffffffffffffffff1681525050806000806101000a81548173ffffffffffffffffffffffffffffffffffffffff021916908373ffffffffffffffffffffffffffffffffffffffff160217905550506200014e565b600080fd5b600073ffffffffffffffffffffffffffffffffffffffff82169050919050565b6000620000e482620000b7565b9050919050565b620000f681620000d7565b81146200010257600080fd5b50565b6000815190506200011681620000eb565b92915050565b600060208284031215620001355762000134620000b2565b5b6000620001458482850162000105565b91505092915050565b60805161107c62000171600039600081816103f10152610558015261107c6000f3fe608060405234801561001057600080fd5b50600436106100575760003560e01c80634e71d92d1461005c5780637c1fb234146100665780638da5cb5b14610082578063c884ef83146100a0578063d66c9cdf146100d0575b600080fd5b610064610100565b005b610080600480360381019061007b9190610a97565b6103d8565b005b61008a610556565b6040516100979190610b1e565b60405180910390f35b6100ba60048036038101906100b59190610b39565b61057a565b6040516100c79190610b81565b60405180910390f35b6100ea60048036038101906100e59190610b39565b61059a565b6040516100f79190610c24565b60405180910390f35b6101e0600160003373ffffffffffffffffffffffffffffffffffffffff1673ffffffffffffffffffffffffffffffffffffffff168152602001908152602001600020805461014d90610c75565b80601f016020809104026020016040519081016040528092919081815260200182805461017990610c75565b80156101c65780601f1061019b576101008083540402835291602001916101c6565b820191906000526020600020905b8154815290600101906020018083116101a957829003601f168201915b50505050506040518060200160405280600081525061063a565b15610220576040517f08c379a000000000000000000000000000000000000000000000000000000000815260040161021790610cf3565b60405180910390fd5b60001515600260003373ffffffffffffffffffffffffffffffffffffffff1673ffffffffffffffffffffffffffffffffffffffff16815260200190815260200160002060009054906101000a900460ff161515146102b3576040517f08c379a00000000000000000000000000000000000000000000000000000000081526004016102aa90610d5f565b60405180910390fd5b60008054906101000a900473ffffffffffffffffffffffffffffffffffffffff1673ffffffffffffffffffffffffffffffffffffffff1663eacabe1433600160003373ffffffffffffffffffffffffffffffffffffffff1673ffffffffffffffffffffffffffffffffffffffff1681526020019081526020016000206040518363ffffffff1660e01b815260040161034c929190610e14565b600060405180830381600087803b15801561036657600080fd5b505af115801561037a573d6000803e3d6000fd5b505050506001600260003373ffffffffffffffffffffffffffffffffffffffff1673ffffffffffffffffffffffffffffffffffffffff16815260200190815260200160002060006101000a81548160ff021916908315150217905550565b3373ffffffffffffffffffffffffffffffffffffffff167f000000000000000000000000000000000000000000000000000000000000000073ffffffffffffffffffffffffffffffffffffffff1614610466576040517f08c379a000000000000000000000000000000000000000000000000000000000815260040161045d90610eb6565b60405180910390fd5b80518251146104aa576040517f08c379a00000000000000000000000000000000000000000000000000000000081526004016104a190610f22565b60405180910390fd5b60005b8251811015610551578181815181106104c9576104c8610f42565b5b6020026020010151600160008584815181106104e8576104e7610f42565b5b602002602001015173ffffffffffffffffffffffffffffffffffffffff1673ffffffffffffffffffffffffffffffffffffffff168152602001908152602001600020908051906020019061053d929190610693565b50808061054990610faa565b9150506104ad565b505050565b7f000000000000000000000000000000000000000000000000000000000000000081565b60026020528060005260406000206000915054906101000a900460ff1681565b600160205280600052604060002060009150905080546105b990610c75565b80601f01602080910402602001604051908101604052809291908181526020018280546105e590610c75565b80156106325780601f1061060757610100808354040283529160200191610632565b820191906000526020600020905b81548152906001019060200180831161061557829003601f168201915b505050505081565b60008160405160200161064d919061102f565b6040516020818303038152906040528051906020012083604051602001610674919061102f565b6040516020818303038152906040528051906020012014905092915050565b82805461069f90610c75565b90600052602060002090601f0160209004810192826106c15760008555610708565b82601f106106da57805160ff1916838001178555610708565b82800160010185558215610708579182015b828111156107075782518255916020019190600101906106ec565b5b5090506107159190610719565b5090565b5b8082111561073257600081600090555060010161071a565b5090565b6000604051905090565b600080fd5b600080fd5b600080fd5b6000601f19601f8301169050919050565b7f4e487b7100000000000000000000000000000000000000000000000000000000600052604160045260246000fd5b6107988261074f565b810181811067ffffffffffffffff821117156107b7576107b6610760565b5b80604052505050565b60006107ca610736565b90506107d6828261078f565b919050565b600067ffffffffffffffff8211156107f6576107f5610760565b5b602082029050602081019050919050565b600080fd5b600073ffffffffffffffffffffffffffffffffffffffff82169050919050565b60006108378261080c565b9050919050565b6108478161082c565b811461085257600080fd5b50565b6000813590506108648161083e565b92915050565b600061087d610878846107db565b6107c0565b905080838252602082019050602084028301858111156108a05761089f610807565b5b835b818110156108c957806108b58882610855565b8452602084019350506020810190506108a2565b5050509392505050565b600082601f8301126108e8576108e761074a565b5b81356108f884826020860161086a565b91505092915050565b600067ffffffffffffffff82111561091c5761091b610760565b5b602082029050602081019050919050565b600080fd5b600067ffffffffffffffff82111561094d5761094c610760565b5b6109568261074f565b9050602081019050919050565b82818337600083830152505050565b600061098561098084610932565b6107c0565b9050828152602081018484840111156109a1576109a061092d565b5b6109ac848285610963565b509392505050565b600082601f8301126109c9576109c861074a565b5b81356109d9848260208601610972565b91505092915050565b60006109f56109f084610901565b6107c0565b90508083825260208201905060208402830185811115610a1857610a17610807565b5b835b81811015610a5f57803567ffffffffffffffff811115610a3d57610a3c61074a565b5b808601610a4a89826109b4565b85526020850194505050602081019050610a1a565b5050509392505050565b600082601f830112610a7e57610a7d61074a565b5b8135610a8e8482602086016109e2565b91505092915050565b60008060408385031215610aae57610aad610740565b5b600083013567ffffffffffffffff811115610acc57610acb610745565b5b610ad8858286016108d3565b925050602083013567ffffffffffffffff811115610af957610af8610745565b5b610b0585828601610a69565b9150509250929050565b610b188161082c565b82525050565b6000602082019050610b336000830184610b0f565b92915050565b600060208284031215610b4f57610b4e610740565b5b6000610b5d84828501610855565b91505092915050565b60008115159050919050565b610b7b81610b66565b82525050565b6000602082019050610b966000830184610b72565b92915050565b600081519050919050565b600082825260208201905092915050565b60005b83811015610bd6578082015181840152602081019050610bbb565b83811115610be5576000848401525b50505050565b6000610bf682610b9c565b610c008185610ba7565b9350610c10818560208601610bb8565b610c198161074f565b840191505092915050565b60006020820190508181036000830152610c3e8184610beb565b905092915050565b7f4e487b7100000000000000000000000000000000000000000000000000000000600052602260045260246000fd5b60006002820490506001821680610c8d57607f821691505b60208210811415610ca157610ca0610c46565b5b50919050565b7f696e76616c69642063616c6c6572212121000000000000000000000000000000600082015250565b6000610cdd601183610ba7565b9150610ce882610ca7565b602082019050919050565b60006020820190508181036000830152610d0c81610cd0565b9050919050565b7f616c726561647920636c61696d65642121210000000000000000000000000000600082015250565b6000610d49601283610ba7565b9150610d5482610d13565b602082019050919050565b60006020820190508181036000830152610d7881610d3c565b9050919050565b60008190508160005260206000209050919050565b60008154610da181610c75565b610dab8186610ba7565b94506001821660008114610dc65760018114610dd857610e0b565b60ff1983168652602086019350610e0b565b610de185610d7f565b60005b83811015610e0357815481890152600182019150602081019050610de4565b808801955050505b50505092915050565b6000604082019050610e296000830185610b0f565b8181036020830152610e3b8184610d94565b90509392505050565b7f6f6e6c79206f776e6572206861732061636365737320746f207468697320667560008201527f6e6374696f6e2121210000000000000000000000000000000000000000000000602082015250565b6000610ea0602983610ba7565b9150610eab82610e44565b604082019050919050565b60006020820190508181036000830152610ecf81610e93565b9050919050565b7f696e76616c696420617267756d656e7473212121000000000000000000000000600082015250565b6000610f0c601483610ba7565b9150610f1782610ed6565b602082019050919050565b60006020820190508181036000830152610f3b81610eff565b9050919050565b7f4e487b7100000000000000000000000000000000000000000000000000000000600052603260045260246000fd5b7f4e487b7100000000000000000000000000000000000000000000000000000000600052601160045260246000fd5b6000819050919050565b6000610fb582610fa0565b91507fffffffffffffffffffffffffffffffffffffffffffffffffffffffffffffffff821415610fe857610fe7610f71565b5b600182019050919050565b600081905092915050565b600061100982610b9c565b6110138185610ff3565b9350611023818560208601610bb8565b80840191505092915050565b600061103b8284610ffe565b91508190509291505056fea26469706673582212203cc7421dac16ff22b31cb9be244b1f42977063c37e2409aa2d510e46711afe6264736f6c634300080b0033",
  "immutableReferences": {
    "14": [
      {
        "length": 32,
        "start": 1009
      },
      {
        "length": 32,
        "start": 1368
      }
    ]
  },
  "source": "// SPDX-License-Identifier: GPL-3.0\npragma solidity ^0.8;\n\ninterface IUSDAO1155 {\n    function mintNFT(address, string memory) external;\n}\n\ncontract NFTGiveaway {\n    IUSDAO1155 USDAO1155;\n    address public immutable owner;\n    mapping(address => string) public winnersUri;\n    mapping(address => bool) public claimed;\n\n    constructor(address _usdao1155) {\n        owner = msg.sender;\n        USDAO1155 = IUSDAO1155(_usdao1155);\n    }\n\n    function compareStrings(string memory a, string memory b)\n        internal\n        pure\n        returns (bool)\n    {\n        return (keccak256(abi.encodePacked((a))) ==\n            keccak256(abi.encodePacked((b))));\n    }\n\n    function setWinners(address[] memory _addresses, string[] memory _uris)\n        external\n    {\n        require(\n            owner == msg.sender,\n            \"only owner has access to this function!!!\"\n        );\n        require(_addresses.length == _uris.length, \"invalid arguments!!!\");\n        for (uint256 i = 0; i < _addresses.length; i++) {\n            winnersUri[_addresses[i]] = _uris[i];\n        }\n    }\n\n    function claim() external {\n        require(\n            !compareStrings(winnersUri[msg.sender], \"\"),\n            \"invalid caller!!!\"\n        );\n        require(claimed[msg.sender] == false, \"already claimed!!!\");\n        //lazy minting\n        USDAO1155.mintNFT(msg.sender, winnersUri[msg.sender]);\n        claimed[msg.sender] = true;\n    }\n}\n",
  "sourcePath": "/Users/lokeshkumar/Desktop/nft-giveaways/contracts/NFTGiveaway.sol",
  "compiler": {
    "name": "solc",
    "version": "0.8.11+commit.d7f03943.Emscripten.clang"
  },
  "schemaVersion": "3.3.4",
  "updatedAt": "2022-01-24T10:42:10.741Z",
  "networkType": "ethereum",
  "devdoc": {
    "kind": "dev",
    "methods": {},
    "version": 1
  },
  "userdoc": {
    "kind": "user",
    "methods": {},
    "version": 1
  }
}