{
  "contractName": "USDAO721",
  "abi": [
    {
      "inputs": [],
      "stateMutability": "nonpayable",
      "type": "constructor"
    },
    {
      "anonymous": false,
      "inputs": [
        {
          "indexed": true,
          "internalType": "address",
          "name": "owner",
          "type": "address"
        },
        {
          "indexed": true,
          "internalType": "address",
          "name": "approved",
          "type": "address"
        },
        {
          "indexed": true,
          "internalType": "uint256",
          "name": "tokenId",
          "type": "uint256"
        }
      ],
      "name": "Approval",
      "type": "event"
    },
    {
      "anonymous": false,
      "inputs": [
        {
          "indexed": true,
          "internalType": "address",
          "name": "owner",
          "type": "address"
        },
        {
          "indexed": true,
          "internalType": "address",
          "name": "operator",
          "type": "address"
        },
        {
          "indexed": false,
          "internalType": "bool",
          "name": "approved",
          "type": "bool"
        }
      ],
      "name": "ApprovalForAll",
      "type": "event"
    },
    {
      "anonymous": false,
      "inputs": [
        {
          "indexed": true,
          "internalType": "address",
          "name": "from",
          "type": "address"
        },
        {
          "indexed": true,
          "internalType": "address",
          "name": "to",
          "type": "address"
        },
        {
          "indexed": true,
          "internalType": "uint256",
          "name": "tokenId",
          "type": "uint256"
        }
      ],
      "name": "Transfer",
      "type": "event"
    },
    {
      "inputs": [
        {
          "internalType": "address",
          "name": "to",
          "type": "address"
        },
        {
          "internalType": "uint256",
          "name": "tokenId",
          "type": "uint256"
        }
      ],
      "name": "approve",
      "outputs": [],
      "stateMutability": "nonpayable",
      "type": "function"
    },
    {
      "inputs": [
        {
          "internalType": "address",
          "name": "owner",
          "type": "address"
        }
      ],
      "name": "balanceOf",
      "outputs": [
        {
          "internalType": "uint256",
          "name": "",
          "type": "uint256"
        }
      ],
      "stateMutability": "view",
      "type": "function",
      "constant": true
    },
    {
      "inputs": [
        {
          "internalType": "uint256",
          "name": "tokenId",
          "type": "uint256"
        }
      ],
      "name": "getApproved",
      "outputs": [
        {
          "internalType": "address",
          "name": "",
          "type": "address"
        }
      ],
      "stateMutability": "view",
      "type": "function",
      "constant": true
    },
    {
      "inputs": [
        {
          "internalType": "address",
          "name": "owner",
          "type": "address"
        },
        {
          "internalType": "address",
          "name": "operator",
          "type": "address"
        }
      ],
      "name": "isApprovedForAll",
      "outputs": [
        {
          "internalType": "bool",
          "name": "",
          "type": "bool"
        }
      ],
      "stateMutability": "view",
      "type": "function",
      "constant": true
    },
    {
      "inputs": [],
      "name": "name",
      "outputs": [
        {
          "internalType": "string",
          "name": "",
          "type": "string"
        }
      ],
      "stateMutability": "view",
      "type": "function",
      "constant": true
    },
    {
      "inputs": [],
      "name": "owner",
      "outputs": [
        {
          "internalType": "address",
          "name": "",
          "type": "address"
        }
      ],
      "stateMutability": "view",
      "type": "function",
      "constant": true
    },
    {
      "inputs": [
        {
          "internalType": "uint256",
          "name": "tokenId",
          "type": "uint256"
        }
      ],
      "name": "ownerOf",
      "outputs": [
        {
          "internalType": "address",
          "name": "",
          "type": "address"
        }
      ],
      "stateMutability": "view",
      "type": "function",
      "constant": true
    },
    {
      "inputs": [
        {
          "internalType": "address",
          "name": "from",
          "type": "address"
        },
        {
          "internalType": "address",
          "name": "to",
          "type": "address"
        },
        {
          "internalType": "uint256",
          "name": "tokenId",
          "type": "uint256"
        }
      ],
      "name": "safeTransferFrom",
      "outputs": [],
      "stateMutability": "nonpayable",
      "type": "function"
    },
    {
      "inputs": [
        {
          "internalType": "address",
          "name": "from",
          "type": "address"
        },
        {
          "internalType": "address",
          "name": "to",
          "type": "address"
        },
        {
          "internalType": "uint256",
          "name": "tokenId",
          "type": "uint256"
        },
        {
          "internalType": "bytes",
          "name": "_data",
          "type": "bytes"
        }
      ],
      "name": "safeTransferFrom",
      "outputs": [],
      "stateMutability": "nonpayable",
      "type": "function"
    },
    {
      "inputs": [
        {
          "internalType": "address",
          "name": "operator",
          "type": "address"
        },
        {
          "internalType": "bool",
          "name": "approved",
          "type": "bool"
        }
      ],
      "name": "setApprovalForAll",
      "outputs": [],
      "stateMutability": "nonpayable",
      "type": "function"
    },
    {
      "inputs": [
        {
          "internalType": "bytes4",
          "name": "interfaceId",
          "type": "bytes4"
        }
      ],
      "name": "supportsInterface",
      "outputs": [
        {
          "internalType": "bool",
          "name": "",
          "type": "bool"
        }
      ],
      "stateMutability": "view",
      "type": "function",
      "constant": true
    },
    {
      "inputs": [],
      "name": "symbol",
      "outputs": [
        {
          "internalType": "string",
          "name": "",
          "type": "string"
        }
      ],
      "stateMutability": "view",
      "type": "function",
      "constant": true
    },
    {
      "inputs": [],
      "name": "totalSupply",
      "outputs": [
        {
          "internalType": "uint256",
          "name": "",
          "type": "uint256"
        }
      ],
      "stateMutability": "view",
      "type": "function",
      "constant": true
    },
    {
      "inputs": [
        {
          "internalType": "address",
          "name": "from",
          "type": "address"
        },
        {
          "internalType": "address",
          "name": "to",
          "type": "address"
        },
        {
          "internalType": "uint256",
          "name": "tokenId",
          "type": "uint256"
        }
      ],
      "name": "transferFrom",
      "outputs": [],
      "stateMutability": "nonpayable",
      "type": "function"
    },
    {
      "inputs": [
        {
          "internalType": "uint256",
          "name": "_tokenId",
          "type": "uint256"
        }
      ],
      "name": "tokenURI",
      "outputs": [
        {
          "internalType": "string",
          "name": "",
          "type": "string"
        }
      ],
      "stateMutability": "view",
      "type": "function",
      "constant": true
    },
    {
      "inputs": [
        {
          "internalType": "address",
          "name": "minter",
          "type": "address"
        },
        {
          "internalType": "string",
          "name": "_uri",
          "type": "string"
        }
      ],
      "name": "mintNFT",
      "outputs": [],
      "stateMutability": "nonpayable",
      "type": "function"
    }
  ],
  "bytecode": "0x60806040523480156200001157600080fd5b506040518060400160405280601481526020017f555344414f204e465420436f6c6c656374696f6e0000000000000000000000008152506040518060400160405280600981526020017f555344414f2d4e4654000000000000000000000000000000000000000000000081525081600090805190602001906200009692919062000101565b508060019080519060200190620000af92919062000101565b505050600060078190555033600660006101000a81548173ffffffffffffffffffffffffffffffffffffffff021916908373ffffffffffffffffffffffffffffffffffffffff16021790555062000216565b8280546200010f90620001e0565b90600052602060002090601f0160209004810192826200013357600085556200017f565b82601f106200014e57805160ff19168380011785556200017f565b828001600101855582156200017f579182015b828111156200017e57825182559160200191906001019062000161565b5b5090506200018e919062000192565b5090565b5b80821115620001ad57600081600090555060010162000193565b5090565b7f4e487b7100000000000000000000000000000000000000000000000000000000600052602260045260246000fd5b60006002820490506001821680620001f957607f821691505b6020821081141562000210576200020f620001b1565b5b50919050565b61265980620002266000396000f3fe608060405234801561001057600080fd5b50600436106101005760003560e01c806370a0823111610097578063b88d4fde11610066578063b88d4fde146102ad578063c87b56dd146102c9578063e985e9c5146102f9578063eacabe141461032957610100565b806370a08231146102255780638da5cb5b1461025557806395d89b4114610273578063a22cb4651461029157610100565b806318160ddd116100d357806318160ddd1461019f57806323b872dd146101bd57806342842e0e146101d95780636352211e146101f557610100565b806301ffc9a71461010557806306fdde0314610135578063081812fc14610153578063095ea7b314610183575b600080fd5b61011f600480360381019061011a9190611691565b610345565b60405161012c91906116d9565b60405180910390f35b61013d610427565b60405161014a919061178d565b60405180910390f35b61016d600480360381019061016891906117e5565b6104b9565b60405161017a9190611853565b60405180910390f35b61019d6004803603810190610198919061189a565b61053e565b005b6101a7610656565b6040516101b491906118e9565b60405180910390f35b6101d760048036038101906101d29190611904565b61065c565b005b6101f360048036038101906101ee9190611904565b6106bc565b005b61020f600480360381019061020a91906117e5565b6106dc565b60405161021c9190611853565b60405180910390f35b61023f600480360381019061023a9190611957565b61078e565b60405161024c91906118e9565b60405180910390f35b61025d610846565b60405161026a9190611853565b60405180910390f35b61027b61086c565b604051610288919061178d565b60405180910390f35b6102ab60048036038101906102a691906119b0565b6108fe565b005b6102c760048036038101906102c29190611b25565b610914565b005b6102e360048036038101906102de91906117e5565b610976565b6040516102f0919061178d565b60405180910390f35b610313600480360381019061030e9190611ba8565b610a1b565b60405161032091906116d9565b60405180910390f35b610343600480360381019061033e9190611c89565b610aaf565b005b60007f80ac58cd000000000000000000000000000000000000000000000000000000007bffffffffffffffffffffffffffffffffffffffffffffffffffffffff1916827bffffffffffffffffffffffffffffffffffffffffffffffffffffffff1916148061041057507f5b5e139f000000000000000000000000000000000000000000000000000000007bffffffffffffffffffffffffffffffffffffffffffffffffffffffff1916827bffffffffffffffffffffffffffffffffffffffffffffffffffffffff1916145b80610420575061041f82610b01565b5b9050919050565b60606000805461043690611d14565b80601f016020809104026020016040519081016040528092919081815260200182805461046290611d14565b80156104af5780601f10610484576101008083540402835291602001916104af565b820191906000526020600020905b81548152906001019060200180831161049257829003601f168201915b5050505050905090565b60006104c482610b6b565b610503576040517f08c379a00000000000000000000000000000000000000000000000000000000081526004016104fa90611db8565b60405180910390fd5b6004600083815260200190815260200160002060009054906101000a900473ffffffffffffffffffffffffffffffffffffffff169050919050565b6000610549826106dc565b90508073ffffffffffffffffffffffffffffffffffffffff168373ffffffffffffffffffffffffffffffffffffffff1614156105ba576040517f08c379a00000000000000000000000000000000000000000000000000000000081526004016105b190611e4a565b60405180910390fd5b8073ffffffffffffffffffffffffffffffffffffffff166105d9610bd7565b73ffffffffffffffffffffffffffffffffffffffff161480610608575061060781610602610bd7565b610a1b565b5b610647576040517f08c379a000000000000000000000000000000000000000000000000000000000815260040161063e90611edc565b60405180910390fd5b6106518383610bdf565b505050565b60075481565b61066d610667610bd7565b82610c98565b6106ac576040517f08c379a00000000000000000000000000000000000000000000000000000000081526004016106a390611f6e565b60405180910390fd5b6106b7838383610d76565b505050565b6106d783838360405180602001604052806000815250610914565b505050565b6000806002600084815260200190815260200160002060009054906101000a900473ffffffffffffffffffffffffffffffffffffffff169050600073ffffffffffffffffffffffffffffffffffffffff168173ffffffffffffffffffffffffffffffffffffffff161415610785576040517f08c379a000000000000000000000000000000000000000000000000000000000815260040161077c90612000565b60405180910390fd5b80915050919050565b60008073ffffffffffffffffffffffffffffffffffffffff168273ffffffffffffffffffffffffffffffffffffffff1614156107ff576040517f08c379a00000000000000000000000000000000000000000000000000000000081526004016107f690612092565b60405180910390fd5b600360008373ffffffffffffffffffffffffffffffffffffffff1673ffffffffffffffffffffffffffffffffffffffff168152602001908152602001600020549050919050565b600660009054906101000a900473ffffffffffffffffffffffffffffffffffffffff1681565b60606001805461087b90611d14565b80601f01602080910402602001604051908101604052809291908181526020018280546108a790611d14565b80156108f45780601f106108c9576101008083540402835291602001916108f4565b820191906000526020600020905b8154815290600101906020018083116108d757829003601f168201915b5050505050905090565b610910610909610bd7565b8383610fd2565b5050565b61092561091f610bd7565b83610c98565b610964576040517f08c379a000000000000000000000000000000000000000000000000000000000815260040161095b90611f6e565b60405180910390fd5b6109708484848461113f565b50505050565b606060086000838152602001908152602001600020805461099690611d14565b80601f01602080910402602001604051908101604052809291908181526020018280546109c290611d14565b8015610a0f5780601f106109e457610100808354040283529160200191610a0f565b820191906000526020600020905b8154815290600101906020018083116109f257829003601f168201915b50505050509050919050565b6000600560008473ffffffffffffffffffffffffffffffffffffffff1673ffffffffffffffffffffffffffffffffffffffff16815260200190815260200160002060008373ffffffffffffffffffffffffffffffffffffffff1673ffffffffffffffffffffffffffffffffffffffff16815260200190815260200160002060009054906101000a900460ff16905092915050565b60076000815480929190610ac2906120e1565b9190505550806008600060075481526020019081526020016000209080519060200190610af0929190611582565b50610afd8260075461119b565b5050565b60007f01ffc9a7000000000000000000000000000000000000000000000000000000007bffffffffffffffffffffffffffffffffffffffffffffffffffffffff1916827bffffffffffffffffffffffffffffffffffffffffffffffffffffffff1916149050919050565b60008073ffffffffffffffffffffffffffffffffffffffff166002600084815260200190815260200160002060009054906101000a900473ffffffffffffffffffffffffffffffffffffffff1673ffffffffffffffffffffffffffffffffffffffff1614159050919050565b600033905090565b816004600083815260200190815260200160002060006101000a81548173ffffffffffffffffffffffffffffffffffffffff021916908373ffffffffffffffffffffffffffffffffffffffff160217905550808273ffffffffffffffffffffffffffffffffffffffff16610c52836106dc565b73ffffffffffffffffffffffffffffffffffffffff167f8c5be1e5ebec7d5bd14f71427d1e84f3dd0314c0f7b2291e5b200ac8c7c3b92560405160405180910390a45050565b6000610ca382610b6b565b610ce2576040517f08c379a0000000000000000000000000000000000000000000000000000000008152600401610cd99061219c565b60405180910390fd5b6000610ced836106dc565b90508073ffffffffffffffffffffffffffffffffffffffff168473ffffffffffffffffffffffffffffffffffffffff161480610d5c57508373ffffffffffffffffffffffffffffffffffffffff16610d44846104b9565b73ffffffffffffffffffffffffffffffffffffffff16145b80610d6d5750610d6c8185610a1b565b5b91505092915050565b8273ffffffffffffffffffffffffffffffffffffffff16610d96826106dc565b73ffffffffffffffffffffffffffffffffffffffff1614610dec576040517f08c379a0000000000000000000000000000000000000000000000000000000008152600401610de39061222e565b60405180910390fd5b600073ffffffffffffffffffffffffffffffffffffffff168273ffffffffffffffffffffffffffffffffffffffff161415610e5c576040517f08c379a0000000000000000000000000000000000000000000000000000000008152600401610e53906122c0565b60405180910390fd5b610e678383836111b9565b610e72600082610bdf565b6001600360008573ffffffffffffffffffffffffffffffffffffffff1673ffffffffffffffffffffffffffffffffffffffff1681526020019081526020016000206000828254610ec291906122e0565b925050819055506001600360008473ffffffffffffffffffffffffffffffffffffffff1673ffffffffffffffffffffffffffffffffffffffff1681526020019081526020016000206000828254610f199190612314565b92505081905550816002600083815260200190815260200160002060006101000a81548173ffffffffffffffffffffffffffffffffffffffff021916908373ffffffffffffffffffffffffffffffffffffffff160217905550808273ffffffffffffffffffffffffffffffffffffffff168473ffffffffffffffffffffffffffffffffffffffff167fddf252ad1be2c89b69c2b068fc378daa952ba7f163c4a11628f55a4df523b3ef60405160405180910390a4505050565b8173ffffffffffffffffffffffffffffffffffffffff168373ffffffffffffffffffffffffffffffffffffffff161415611041576040517f08c379a0000000000000000000000000000000000000000000000000000000008152600401611038906123b6565b60405180910390fd5b80600560008573ffffffffffffffffffffffffffffffffffffffff1673ffffffffffffffffffffffffffffffffffffffff16815260200190815260200160002060008473ffffffffffffffffffffffffffffffffffffffff1673ffffffffffffffffffffffffffffffffffffffff16815260200190815260200160002060006101000a81548160ff0219169083151502179055508173ffffffffffffffffffffffffffffffffffffffff168373ffffffffffffffffffffffffffffffffffffffff167f17307eab39ab6107e8899845ad3d59bd9653f200f220920489ca2b5937696c318360405161113291906116d9565b60405180910390a3505050565b61114a848484610d76565b611156848484846111be565b611195576040517f08c379a000000000000000000000000000000000000000000000000000000000815260040161118c90612448565b60405180910390fd5b50505050565b6111b5828260405180602001604052806000815250611346565b5050565b505050565b60006111df8473ffffffffffffffffffffffffffffffffffffffff166113a1565b15611339578373ffffffffffffffffffffffffffffffffffffffff1663150b7a02611208610bd7565b8786866040518563ffffffff1660e01b815260040161122a94939291906124bd565b6020604051808303816000875af192505050801561126657506040513d601f19601f82011682018060405250810190611263919061251e565b60015b6112e9573d8060008114611296576040519150601f19603f3d011682016040523d82523d6000602084013e61129b565b606091505b506000815114156112e1576040517f08c379a00000000000000000000000000000000000000000000000000000000081526004016112d890612448565b60405180910390fd5b805181602001fd5b63150b7a0260e01b7bffffffffffffffffffffffffffffffffffffffffffffffffffffffff1916817bffffffffffffffffffffffffffffffffffffffffffffffffffffffff19161491505061133e565b600190505b949350505050565b61135083836113b4565b61135d60008484846111be565b61139c576040517f08c379a000000000000000000000000000000000000000000000000000000000815260040161139390612448565b60405180910390fd5b505050565b600080823b905060008111915050919050565b600073ffffffffffffffffffffffffffffffffffffffff168273ffffffffffffffffffffffffffffffffffffffff161415611424576040517f08c379a000000000000000000000000000000000000000000000000000000000815260040161141b90612597565b60405180910390fd5b61142d81610b6b565b1561146d576040517f08c379a000000000000000000000000000000000000000000000000000000000815260040161146490612603565b60405180910390fd5b611479600083836111b9565b6001600360008473ffffffffffffffffffffffffffffffffffffffff1673ffffffffffffffffffffffffffffffffffffffff16815260200190815260200160002060008282546114c99190612314565b92505081905550816002600083815260200190815260200160002060006101000a81548173ffffffffffffffffffffffffffffffffffffffff021916908373ffffffffffffffffffffffffffffffffffffffff160217905550808273ffffffffffffffffffffffffffffffffffffffff16600073ffffffffffffffffffffffffffffffffffffffff167fddf252ad1be2c89b69c2b068fc378daa952ba7f163c4a11628f55a4df523b3ef60405160405180910390a45050565b82805461158e90611d14565b90600052602060002090601f0160209004810192826115b057600085556115f7565b82601f106115c957805160ff19168380011785556115f7565b828001600101855582156115f7579182015b828111156115f65782518255916020019190600101906115db565b5b5090506116049190611608565b5090565b5b80821115611621576000816000905550600101611609565b5090565b6000604051905090565b600080fd5b600080fd5b60007fffffffff0000000000000000000000000000000000000000000000000000000082169050919050565b61166e81611639565b811461167957600080fd5b50565b60008135905061168b81611665565b92915050565b6000602082840312156116a7576116a661162f565b5b60006116b58482850161167c565b91505092915050565b60008115159050919050565b6116d3816116be565b82525050565b60006020820190506116ee60008301846116ca565b92915050565b600081519050919050565b600082825260208201905092915050565b60005b8381101561172e578082015181840152602081019050611713565b8381111561173d576000848401525b50505050565b6000601f19601f8301169050919050565b600061175f826116f4565b61176981856116ff565b9350611779818560208601611710565b61178281611743565b840191505092915050565b600060208201905081810360008301526117a78184611754565b905092915050565b6000819050919050565b6117c2816117af565b81146117cd57600080fd5b50565b6000813590506117df816117b9565b92915050565b6000602082840312156117fb576117fa61162f565b5b6000611809848285016117d0565b91505092915050565b600073ffffffffffffffffffffffffffffffffffffffff82169050919050565b600061183d82611812565b9050919050565b61184d81611832565b82525050565b60006020820190506118686000830184611844565b92915050565b61187781611832565b811461188257600080fd5b50565b6000813590506118948161186e565b92915050565b600080604083850312156118b1576118b061162f565b5b60006118bf85828601611885565b92505060206118d0858286016117d0565b9150509250929050565b6118e3816117af565b82525050565b60006020820190506118fe60008301846118da565b92915050565b60008060006060848603121561191d5761191c61162f565b5b600061192b86828701611885565b935050602061193c86828701611885565b925050604061194d868287016117d0565b9150509250925092565b60006020828403121561196d5761196c61162f565b5b600061197b84828501611885565b91505092915050565b61198d816116be565b811461199857600080fd5b50565b6000813590506119aa81611984565b92915050565b600080604083850312156119c7576119c661162f565b5b60006119d585828601611885565b92505060206119e68582860161199b565b9150509250929050565b600080fd5b600080fd5b7f4e487b7100000000000000000000000000000000000000000000000000000000600052604160045260246000fd5b611a3282611743565b810181811067ffffffffffffffff82111715611a5157611a506119fa565b5b80604052505050565b6000611a64611625565b9050611a708282611a29565b919050565b600067ffffffffffffffff821115611a9057611a8f6119fa565b5b611a9982611743565b9050602081019050919050565b82818337600083830152505050565b6000611ac8611ac384611a75565b611a5a565b905082815260208101848484011115611ae457611ae36119f5565b5b611aef848285611aa6565b509392505050565b600082601f830112611b0c57611b0b6119f0565b5b8135611b1c848260208601611ab5565b91505092915050565b60008060008060808587031215611b3f57611b3e61162f565b5b6000611b4d87828801611885565b9450506020611b5e87828801611885565b9350506040611b6f878288016117d0565b925050606085013567ffffffffffffffff811115611b9057611b8f611634565b5b611b9c87828801611af7565b91505092959194509250565b60008060408385031215611bbf57611bbe61162f565b5b6000611bcd85828601611885565b9250506020611bde85828601611885565b9150509250929050565b600067ffffffffffffffff821115611c0357611c026119fa565b5b611c0c82611743565b9050602081019050919050565b6000611c2c611c2784611be8565b611a5a565b905082815260208101848484011115611c4857611c476119f5565b5b611c53848285611aa6565b509392505050565b600082601f830112611c7057611c6f6119f0565b5b8135611c80848260208601611c19565b91505092915050565b60008060408385031215611ca057611c9f61162f565b5b6000611cae85828601611885565b925050602083013567ffffffffffffffff811115611ccf57611cce611634565b5b611cdb85828601611c5b565b9150509250929050565b7f4e487b7100000000000000000000000000000000000000000000000000000000600052602260045260246000fd5b60006002820490506001821680611d2c57607f821691505b60208210811415611d4057611d3f611ce5565b5b50919050565b7f4552433732313a20617070726f76656420717565727920666f72206e6f6e657860008201527f697374656e7420746f6b656e0000000000000000000000000000000000000000602082015250565b6000611da2602c836116ff565b9150611dad82611d46565b604082019050919050565b60006020820190508181036000830152611dd181611d95565b9050919050565b7f4552433732313a20617070726f76616c20746f2063757272656e74206f776e6560008201527f7200000000000000000000000000000000000000000000000000000000000000602082015250565b6000611e346021836116ff565b9150611e3f82611dd8565b604082019050919050565b60006020820190508181036000830152611e6381611e27565b9050919050565b7f4552433732313a20617070726f76652063616c6c6572206973206e6f74206f7760008201527f6e6572206e6f7220617070726f76656420666f7220616c6c0000000000000000602082015250565b6000611ec66038836116ff565b9150611ed182611e6a565b604082019050919050565b60006020820190508181036000830152611ef581611eb9565b9050919050565b7f4552433732313a207472616e736665722063616c6c6572206973206e6f74206f60008201527f776e6572206e6f7220617070726f766564000000000000000000000000000000602082015250565b6000611f586031836116ff565b9150611f6382611efc565b604082019050919050565b60006020820190508181036000830152611f8781611f4b565b9050919050565b7f4552433732313a206f776e657220717565727920666f72206e6f6e657869737460008201527f656e7420746f6b656e0000000000000000000000000000000000000000000000602082015250565b6000611fea6029836116ff565b9150611ff582611f8e565b604082019050919050565b6000602082019050818103600083015261201981611fdd565b9050919050565b7f4552433732313a2062616c616e636520717565727920666f7220746865207a6560008201527f726f206164647265737300000000000000000000000000000000000000000000602082015250565b600061207c602a836116ff565b915061208782612020565b604082019050919050565b600060208201905081810360008301526120ab8161206f565b9050919050565b7f4e487b7100000000000000000000000000000000000000000000000000000000600052601160045260246000fd5b60006120ec826117af565b91507fffffffffffffffffffffffffffffffffffffffffffffffffffffffffffffffff82141561211f5761211e6120b2565b5b600182019050919050565b7f4552433732313a206f70657261746f7220717565727920666f72206e6f6e657860008201527f697374656e7420746f6b656e0000000000000000000000000000000000000000602082015250565b6000612186602c836116ff565b91506121918261212a565b604082019050919050565b600060208201905081810360008301526121b581612179565b9050919050565b7f4552433732313a207472616e73666572206f6620746f6b656e2074686174206960008201527f73206e6f74206f776e0000000000000000000000000000000000000000000000602082015250565b60006122186029836116ff565b9150612223826121bc565b604082019050919050565b600060208201905081810360008301526122478161220b565b9050919050565b7f4552433732313a207472616e7366657220746f20746865207a65726f2061646460008201527f7265737300000000000000000000000000000000000000000000000000000000602082015250565b60006122aa6024836116ff565b91506122b58261224e565b604082019050919050565b600060208201905081810360008301526122d98161229d565b9050919050565b60006122eb826117af565b91506122f6836117af565b925082821015612309576123086120b2565b5b828203905092915050565b600061231f826117af565b915061232a836117af565b9250827fffffffffffffffffffffffffffffffffffffffffffffffffffffffffffffffff0382111561235f5761235e6120b2565b5b828201905092915050565b7f4552433732313a20617070726f766520746f2063616c6c657200000000000000600082015250565b60006123a06019836116ff565b91506123ab8261236a565b602082019050919050565b600060208201905081810360008301526123cf81612393565b9050919050565b7f4552433732313a207472616e7366657220746f206e6f6e20455243373231526560008201527f63656976657220696d706c656d656e7465720000000000000000000000000000602082015250565b60006124326032836116ff565b915061243d826123d6565b604082019050919050565b6000602082019050818103600083015261246181612425565b9050919050565b600081519050919050565b600082825260208201905092915050565b600061248f82612468565b6124998185612473565b93506124a9818560208601611710565b6124b281611743565b840191505092915050565b60006080820190506124d26000830187611844565b6124df6020830186611844565b6124ec60408301856118da565b81810360608301526124fe8184612484565b905095945050505050565b60008151905061251881611665565b92915050565b6000602082840312156125345761253361162f565b5b600061254284828501612509565b91505092915050565b7f4552433732313a206d696e7420746f20746865207a65726f2061646472657373600082015250565b60006125816020836116ff565b915061258c8261254b565b602082019050919050565b600060208201905081810360008301526125b081612574565b9050919050565b7f4552433732313a20746f6b656e20616c7265616479206d696e74656400000000600082015250565b60006125ed601c836116ff565b91506125f8826125b7565b602082019050919050565b6000602082019050818103600083015261261c816125e0565b905091905056fea2646970667358221220ae4bc63da7e3b0353786c3fe43dd31538a669d278523826aa3e0d90717dcd23564736f6c634300080b0033",
  "immutableReferences": {},
  "source": "// SPDX-License-Identifier: GPL-3.0\npragma solidity ^0.8;\n\nimport \"@openzeppelin/contracts/token/ERC721/ERC721.sol\";\n\ncontract USDAO721 is ERC721 {\n    address public owner;\n    uint256 public totalSupply;\n    mapping(uint256 => string) private _tokenURI;\n\n    constructor() ERC721(\"USDAO NFT Collection\", \"USDAO-NFT\") {\n        totalSupply = 0;\n        owner = msg.sender;\n    }\n\n    // function _baseURI() internal view virtual override returns (string memory) {\n    //     return \"ipfs://QmSLMv1UbbtJztwTg9UjfF3YCEeFmwFnmvy2sYPsFnoiCd/{id}.json\";\n    // }\n\n    function tokenURI(uint256 _tokenId)\n        public\n        view\n        virtual\n        override\n        returns (string memory)\n    {\n        return _tokenURI[_tokenId];\n    }\n\n    function mintNFT(address minter, string memory _uri) external {\n        totalSupply++;\n        _tokenURI[totalSupply] = _uri;\n        _safeMint(minter, totalSupply);\n    }\n}\n",
  "sourcePath": "/Users/lokeshkumar/gfuturetech/USDAO721/contracts/USDAO721.sol",
  "compiler": {
    "name": "solc",
    "version": "0.8.11+commit.d7f03943.Emscripten.clang"
  },
  "schemaVersion": "3.3.4",
  "updatedAt": "2022-01-21T13:24:41.441Z",
  "networkType": "ethereum",
  "devdoc": {
    "kind": "dev",
    "methods": {
      "approve(address,uint256)": {
        "details": "See {IERC721-approve}."
      },
      "balanceOf(address)": {
        "details": "See {IERC721-balanceOf}."
      },
      "getApproved(uint256)": {
        "details": "See {IERC721-getApproved}."
      },
      "isApprovedForAll(address,address)": {
        "details": "See {IERC721-isApprovedForAll}."
      },
      "name()": {
        "details": "See {IERC721Metadata-name}."
      },
      "ownerOf(uint256)": {
        "details": "See {IERC721-ownerOf}."
      },
      "safeTransferFrom(address,address,uint256)": {
        "details": "See {IERC721-safeTransferFrom}."
      },
      "safeTransferFrom(address,address,uint256,bytes)": {
        "details": "See {IERC721-safeTransferFrom}."
      },
      "setApprovalForAll(address,bool)": {
        "details": "See {IERC721-setApprovalForAll}."
      },
      "supportsInterface(bytes4)": {
        "details": "See {IERC165-supportsInterface}."
      },
      "symbol()": {
        "details": "See {IERC721Metadata-symbol}."
      },
      "transferFrom(address,address,uint256)": {
        "details": "See {IERC721-transferFrom}."
      }
    },
    "version": 1
  },
  "userdoc": {
    "kind": "user",
    "methods": {},
    "version": 1
  }
}